:100D99007590FFC2B5D2B6D2B7E4FFE59030E7044B
:060DA9000FBF14F7C2B7F2
:010DAF002221
:0F0DB000E4FF120D99D2B5D2B6D2B7AF90C2B749
:010DBF002211
:100DC000AE07120D998E90D2B5C2B6D2B7C2B72275
:100DD000AE07120D998E90C2B5C2B6D2B7C2B72275
:0A0DF9007F30120DD07F0C020DD0E8
:0A0E03007F36120DD07F30020DD0B3
:050E0D007F34020DD04E
:100D4C00AC07EDC39420ED400E2460FF120DD0ECE7
:100D5C00C4540F2488800C2480FF120DD0ECC45492
:080D6C000F2480FF120DD022BC
:100B3500FEC3E4956BFDE4956AFCE5692DFDE5686A
:020B45003CFC76
:080B47008E728F73AB05AA0446
:100B4F00E4F574F575FC7D20AF03AE021203F08D52
:100B5F0079C3E572648094805003020C15D3E5735A
:100B6F00947FE572648094804003020C15C3EA649D
:100B7F008094805003020C15D3EB943FEA64809469
:100B8F00804003020C15AE72AF737C007D10120310
:100B9F00F08F76AE72AF737C007D101203F08D77FD
:100BAF007C007D20AF03AE021203F0EF75F008A4B6
:100BBF00F578AF73AD03120D4C120DB0120DB08F4F
:100BCF0074120DB08F75AF73120D4CE577C3940887
:100BDF005017C374079577FF7401A807088002C3E5
:100BEF0033D8FC6274AF74801AAF74120DC0C37423
:100BFF000F9577FF7401A807088002C333D8FC62F2
:060C0F0075AF75120DC067
:010C150022BC
:0E088600E56075F00AA42412F8E6FA08E6FB15
:080894008E668F678C688D6988
:10089C009000008A6A8B6BC374019BF56DE49AF52A
:1008AC006C756E00756F03C374029BCFE49ACFC353
:1008BC009BF571EF9AF570C3743F9569F569E495F2
:1008CC0068F568E5672582FFE5663583FEE56B25EF
:1008DC0069FDE56A3568020A0EC3E582956BE56A27
:1008EC006480F8E5836480984003020A15C3E56CC4
:1008FC0064809480501AE56F256DF56DE56E356C4E
:10090C00F56C7402256FF56FE4356EF56EA38033CC
:10091C00E56F2571FFE56E3570FEEF256DF56DEE1B
:10092C00356CF56C7402256FF56FE4356EF56E74ED
:10093C00022571F571E43570F570A3E56B156B70DC
:10094C0002156AE5672582FFE5663583FEE56B25B2
:10095C0069FDE56A3568FC120B47C3E49582FFE438
:10096C009583FEE5672FFFE5663E120B35E567259F
:10097C0082FFE5663583120B35C3E49582FFE4955F
:10098C0083FEE5672FFFE5663EFEE56B2569FDE519
:10099C006A3568FC120B47E56B2567FFE56A35661F
:1009AC00FEE5692582FDE5683583FC120B47C3E43F
:1009BC00956BFFE4956AFEE5672FFFE5663EFEC387
:1009CC00E49582FDE49583120B3EC3E4956BFFE442
:1009DC00956AFEE5672FFFE5663EFEE5692582FD1B
:1009EC00E5683583FC120B47E56B2567FFE56A3537
:1009FC0066FEC3E49582FDE49583FCE5692DFDE577
:090A0C00683CFC120B470208E5EE
:010A150022BE
:100D0D008E668F67AF05AE04C3EF956DFDEE956CE6
:100D1D00FCC3EF956DFFEE956CFE1203DE8E838F97
:100D2D0082C3E5679BFDE5669AFCAF05FE1203DE07
:0F0D3D00EF2582FDEE3583FC12018C120C1A2279
:100A1600E4F5607F33120DD07F30120DD07F301297
:100A26000DD07F01120DD0120DF9D2B4120E0D7534
:100A36000A00750B40750C00750D207508007509C8
:100A46000AAB09AA08AD0DAC0CAF0BAE0A1208949E
:0A0A56007F057E00120D02E4F5603A
:100A6000E5602401FFE433FE7C007D0F1203DEE528
:100A70006075F00AA4240EF8A60608A607120CC09A
:100A80007C007D141203F0ED2416FFE43CFEE560CB
:100A900075F00AA42410F8A60608A607120CC07C5C
:100AA000007D051203F0ED2405FFE43CFEE56075D2
:100AB000F00AA42412F8A60608A607120CC07C00AF
:100AC0007D081203F0ED24FCFFEC34FFF5618F622A
:100AD0004F60E8E56075F00AA42414F8A66108A642
:100AE00062120CC07C007D081203F0ED24FCFFECC8
:100AF00034FFF5618F624F60E8E56075F00AA42469
:100B000016F8A66108A662E56075F00AA4240EF83E
:100B1000E6FE08E6FFE56075F00AA42410F8E6FC9E
:080B200008E6FDE560120888FB
:0C0B28000560E560C394085003020A60F9
:010B3400229E
:10048900120E0D7B0A7A00AD0DAC0CAF0BAE0A1241
:10049900089430B20A050BE50B700C050A8008E5D3
:1004A9000B150B7002150A30B00A050DE50D700C1D
:1004B900050C8008E50D150D7002150CE50B24805F
:1004C900FFE4350AFE7C007D801203F08C0A8D0B57
:1004D900E50D2440FFE4350CFE7C007D401203F05D
:1004E9008C0C8D0DAB09AA08AF0BAE0A120894E467
:0204F900F560AC
:1004FB00E56075F00AA42414F8E6FE08E6FFE56053
:10050B0075F00AA4240EF8E6FC08E62FF563EC3E22
:10051B00F562E56075F00AA42416F8E6FE08E6FF1E
:10052B00E56075F00AA42410F8E6FC08E6FD2FF54B
:10053B0065EC3EF564E56075F00AA4240EF8E6FE62
:10054B0008E6FF120886E56075F00AA42412F8E6A7
:10055B00FE08E6FFC3E5639FEE6480F8E562648006
:10056B00985017E56075F00AA42414F8E6FC08E629
:10057B00FDEC12018C120DE0803DE56075F00AA4D4
:10058B002412F8E6FE08E6FFC3747F9FFFE49EFE8D
:10059B00D3E5639FEE6480F8E5626480984029E5BB
:1005AB006075F00AA42414F8E6FC08E6FDEC1201D1
:1005BB008C120DE01201761201C5E56075F00AA4EC
:1005CB002414F8A60608A607E56075F00AA4241201
:1005DB00F8E6FE08E6FFC3E5659FEE6480F8E56488
:1005EB00648098501DE56075F00AA42416F8E6FEA9
:1005FB0008E6FFC3E49FFDE49EFC12018C120DE0A4
:10060B008043E56075F00AA42412F8E6FE08E6FFC5
:10061B00C3743F9FFFE49EFED3E5659FEE6480F8B5
:10062B00E564648098402FE56075F00AA42416F801
:10063B00E6FE08E6FFC3E49FFDE49EFC12018C126C
:10064B000DE01201761201C5E56075F00AA42416BF
:10065B00F8A60608A607E56004F561E561C39408F2
:10066B00400302081AE56175F00AA4240EF8E6FAB5
:10067B0008E6FBE56175F00AA42410F8E6F56C08B2
:10068B00E6F56DAD65AC64AF63AE62120D0DC004E3
:10069B00C005C006C007E56175F00AA42412F8E690
:1006AB00FE08E625E0FDEE33FC12018CA804A9053B
:1006BB00AA06AB07D007D006D005D00412010960FB
:1006CB00025003020815E56075F00AA42414F8E63D
:1006DB00FC08E6FDEC12018C120DE0E56175F00AE9
:1006EB00A4240EF8E6FA08E6FBD3E5639BEA6480E4
:1006FB00F8E562648098E4FBFA79804004783F80E7
:10070B000278BF1200031201C5E56075F00AA4243C
:10071B0014F8A60608A607E56075F00AA42416F8D7
:10072B00E6FC08E6FDEC12018C120DE0E56175F0BC
:10073B000AA42410F8E6FA08E6FBD3E5659BEA6405
:10074B0080F8E564648098E4FBFA79804004783F94
:10075B00800278BF1200031201C5E56075F00AA490
:10076B002416F8A60608A607E56175F00AA424145A
:10077B00F8E6FC08E6FDEC12018C120DE0E5617564
:10078B00F00AA4240EF8E6FA08E6FBD3E5639BEA2D
:10079B006480F8E562648098E4FBFA798040047821
:1007AB00BF8002783F1200031201C5E56175F00AA4
:1007BB00A42414F8A60608A607E56175F00AA4247C
:1007CB0016F8E6FC08E6FDEC12018C120DE0E56173
:1007DB0075F00AA42410F8E6FA08E6FBD3E5659B4E
:1007EB00EA6480F8E564648098E4FBFA798040045D
:1007FB0078BF8002783F1200031201C5E56175F0E6
:10080B000AA42416F8A60608A6070561020666E5E3
:10081B006075F00AA42414F8E6FE08E6FFE560759F
:10082B00F00AA4240EF808EF26F618EE36F6E5606B
:10083B0075F00AA42416F8E6FE08E6FFE56075F0ED
:10084B000AA42410F808EF26F618EE36F6E56075C4
:10085B00F00AA4240EF8E6FE08E6FFE56075F00A40
:0C086B00A42410F8E6FC08E6FD12088644
:0F0877000560E560C3940850030204FB020E0302
:100D7400755E00755F32120A16E55F155F70021525
:100D84005EC3E55E6480948050EF755E00755F32EB
:050D940012048980E457
:10000300EC4D6011E8497017ED33EC3304600DE4F7
:10001300FCFFFEFD22E933E8330470F802023112DB
:1000230001FC58046009E4CC2481500628500902DD
:10003300023B284003020238C0E0EB4A7044B98017
:1000430006D0E0FB020227EF4E701CBD8008EBFFD9
:10005300EAFEE9FD80EBE98DF0A4FEE5F00200EC99
:10006300E9CDF9EAFEEBFFEF89F0A4FCE5F0CE89D8
:10007300F0A42EFFE435F0CD89F0A42DFEE435F095
:100083008067EF4E7005BD80D780C3EF8BF0A4ACC3
:10009300F0EE8BF0A42CFCE435F0F8EF8AF0A42CFE
:1000A300E5F038FCE433CB8DF0A42CFCE5F03BF811
:1000B300EE8AF0A42CFCE5F038F8E433CF89F0A401
:1000C3002CFCE5F038CF3400CE89F0A42FFFE5F007
:1000D3003EFEE433C98DF0A42EFEE5F039CD8AF05F
:1000E300A42FFFE5F03EFEE43DFD33D0E0FB5007D7
:1000F3000BBB000F02023BEC2CFCEF33FFEE33FE95
:06010300ED33FD020213C2
:1001090074F8CC6480CCC86480C8F582046043C3A9
:10011900EB9FF5F0EA9E42F0E99D42F0E89C45F03C
:1001290060305018E5825FFFE582F42B5582FB5061
:10013900210ABA001D09B90019088016E5825BFB7E
:10014900E582F42F5582FF50090EBE00050DBD0052
:10015900010CC3EB9FF5F0EA9E42F0E99D42F0E8FD
:0D0169009C45F06007CC4820E701B3EC2274
:10017600ED33EC33600A047003BD8004ECB2E7FC97
:010186002256
:1001870075F020800E75F010800575F0087D007EF3
:10019700007F003392D530D503120426EC3340108C
:1001A700EF33FFEE33FEED33FDEC33FCD5F0ED22FC
:0E01B700E5F0247EA2D513CC92E7CDCEFF2238
:1001C500EDD2E7CD33EC3392D524814006E4FFFE32
:1001D500FDFC22FCE4CFCECDCC24E0501174FF8091
:1001E500EDC3CC13CCCD13CDCE13CECF13CF04702E
:0701F500F030D5DE02042604
:0D0DE000ED33EC3360065004EC6480FC221F
:100C160002023122EDA2E7D2E7F9EC3340F260F3AB
:100C2600B4FF08ED547F70E802023BF82481C2E06D
:100C3600C0E0F40428FAC313FCED92E7FD8C6E8D38
:100C46006F8E708F71EEA2E7E9BA7F02C31334008C
:100C56009400FA75F091A4E5F013F494FE8AF0A4DA
:100C660033E5F033248CD313FDE492E7FE7F007C5A
:100C76003F758302ECC0E0F8EDC0E0F9EEC0E0FAA3
:100C8600EFC0E0FBAC6EAD6FAE70AF71120341D03A
:100C9600E0FBD0E0FAD0E0F9D0E0F812024DED64C6
:100CA60080FD30E7011CD583CBED33CC33F8D0E0A3
:0A0CB600A2E71328C313CC13FD229C
:1001FC00E9D2E7C933E833F892D5EDD2E7CD33EC49
:07020C0033FC5002B2D522C1
:10021300EC30E7100FBF000C0EBE00080DBD00044C
:100223000BEB6014A2D5EB13FCED92E7FD2274FFF8
:10023300FCFDFEFF22E480F8A2D574FF13FC7D8051
:03024300E480EF65
:10024600020231E86480F8E933E83360110460F0B3
:10025600ED33EC337009E8FCE9FDEAFEEBFF22041E
:1002660060DED3EB9FEA9EE99DE8C2E78CF0C2F719
:1002760095F0400CE8CCF8E9CDF9EACEFAEBCFFBE5
:100286001201FC85D0F05804700320D5B3E8047041
:10029600075002B2D502023B92D5EC0460F7E4CCDB
:1002A600C0E0C398F8603B94186008400DD0E0FBAE
:1002B600020213E4FBFAC9FC8028E830E406E4C92C
:1002C600FBE4CAFCE830E305E4C9CACBFCE8540702
:1002D6006010F8C3E913F9EA13FAEB13FBEC13FC0D
:1002E600D8F130F52FC3E49CFCEF9BFFEE9AFEEDB0
:1002F60099FDD0E0FBEF4E4D4C701222DB0302025B
:1003060038EC2CFCEF33FFEE33FEED33FDED30E73A
:10031600EB020213EF2BFFEE3AFEED39FDD0E0FBC8
:1003260050130BBB000302023BED13FDEE13FEEF71
:0803360013FFEC13FC0202139B
:10033E0002023BEC5D046005E859047003020231D1
:10034E001201FC580460F6EC4860F2EC7004FDFEFD
:10035E00FF22C860DB2481C85009C3986002500692
:10036E000202389850CAF582E9294B4A7005AB82D1
:10037E0002022775F0007C1A7880C3EF9BEE9AED8F
:10038E0099400DC3EF9BFFEE9AFEED99FDE842F00A
:10039E00DC23ACF0D0E0FFD0E0FED0E0FDAB82205D
:1003AE00E7101BEB60BAEC2CFCEF33FFEE33FEEDE7
:1003BE0033FD020213E803F830E705C0F075F000D4
:1003CE00EF2FFFEE33FEED33FD40B830E7C280AACB
:03000000020DED01
:0C0DED00787FE4F6D8FD75817D020D745E
:1003DE00EF8DF0A4A8F0CF8CF0A428CE8DF0A42E33
:0203EE00FE22ED
:1003F000C2D5EC30E709B2D5E4C39DFDE49CFCEE28
:1004000030E715B2D5E4C39FFFE49EFE120434C367
:10041000E49DFDE49CFC800312043430D507C3E462
:060420009FFFE49EFE2296
:0E042600C3E49FFFE49EFEE49DFDE49CFC22E7
:100CC000AC7AAD7BAE7CAF7D7810EC4D4E4F7004AE
:100CD0007CA57DA5C3EC13FCED13FDEE13FEEF1315
:100CE000FF5010EC64CCFCED644CFDEE644EFEEF66
:100CF00064CEFFD8DF8C7A8D7B8E7C8F7DEE547F27
:0D0D0000FE228E7A8F7B74A5F57CF57D2296
:10043400BC000BBE0029EF8DF084FFADF022E4CCAC
:10044400F875F008EF2FFFEE33FEEC33FCEE9DEC75
:10045400984005FCEE9DFE0FD5F0E9E4CEFD22EDBB
:10046400F8F5F0EE8420D21CFEADF075F008EF2F05
:10047400FFED33FD4007985006D5F0F222C398FDF6
:050484000FD5F0EA2293
:00000001FF
